:020000040800F2
:1000000000000220951F00085D1900085F19000814
:100010006119000863190008651900080000000054
:100020000000000000000000000000006719000848
:1000300069190008000000006B1900086D1900081C
:10004000E51F0008E51F0008E51F0008E51F000880
:10005000E51F0008E51F0008E51F0008E51F000870
:10006000E51F0008E51F0008E51F0008E51F000860
:10007000E51F0008E51F0008E51F0008E51F000850
:10008000E51F0008E51F0008E51F0008E51F000840
:10009000E51F0008E51F0008E51F0008E51F000830
:1000A000E51F0008E51F0008E51F0008E51F000820
:1000B000E51F0008E51F0008E51F0008E51F000810
:1000C000E51F0008E51F0008E51F0008E51F000800
:1000D000E51F0008E51F0008E51F0008E51F0008F0
:1000E000E51F0008E51F0008E51F0008E51F0008E0
:1000F000E51F0008E51F0008E51F0008E51F0008D0
:10010000E51F0008E51F0008E51F0008E51F0008BF
:10011000E51F0008E51F0008E51F0008E51F0008AF
:10012000E51F0008E51F0008E51F0008E51F00089F
:10013000E51F0008E51F0008E51F0008E51F00088F
:10014000E51F0008E51F0008E51F0008E51F00087F
:10015000E51F0008E51F0008E51F0008E51F00086F
:10016000E51F0008E51F0008E51F0008E51F00085F
:10017000E51F0008E51F0008E51F0008000000005B
:08018000E51F0008E51F00085F
:1001880010B5054C237833B9044B13B10448AFF3C9
:1001980000800123237010BD7000002000000000C3
:1001A800B029000808B5034B1BB103490348AFF356
:1001B800008008BD0000000074000020B02900087D
:1001C80053B94AB9002908BF00281CBF4FF0FF31B6
:1001D8004FF0FF3000F072B9ADF1080C6DE904CEB4
:1001E80000F006F8DDF804E0DDE9022304B070470A
:1001F8002DE9F047089E04468846002B4BD18A42D9
:10020800154667D9B2FA82F24AB1C2F1200701FA5B
:1002180002F320FA07F7954047EA030894404FEAAB
:10022800154E230CB8FBFEF71FFA85FC0EFB17884A
:1002380043EA084307FB0CF1994209D9EB1807F187
:10024800FF3080F01B81994240F21881023F2B4415
:100258005B1AA4B2B3FBFEF00EFB103344EA03446E
:1002680000FB0CFCA44509D92C1900F1FF3380F0E0
:100278000781A44540F2048102382C4440EA074033
:10028800A4EB0C0400271EB1D4400023C6E90043A8
:100298003946BDE8F0878B4209D9002E00F0EB8083
:1002A8000027C6E9000138463946BDE8F087B3FAA9
:1002B80083F7002F47D18B4202D3824200F2FA80A3
:1002C800841A61EB030301209846002EE0D0C6E9AA
:1002D8000048DDE702B9FFDEB2FA82F2002A40F0F8
:1002E8008F80491B4FEA154E1FFA85F80127B1FB8D
:1002F800FEFC230C0EFB1C1143EA014308FB0CF126
:10030800994207D9EB180CF1FF3002D2994200F25A
:10031800CD808446591AA3B2B1FBFEF00EFB10142F
:1003280043EA044408FB00F8A04507D92C1900F15A
:10033800FF3302D2A04500F2B6801846A4EB0804A9
:1003480040EA0C409FE7C7F1200CBB4022FA0CFEA4
:100358004EEA030E01FA07F420FA0CF521FA0CF321
:100368004FEA1E482543B3FBF8F92C0C08FB193358
:100378001FFA8EFA44EA034309FB0AF49C4202FA84
:1003880007F200FA07F10BD91EEB030309F1FF305E
:1003980080F087809C4240F28480A9F1020973446E
:1003A8001B1BADB2B3FBF8F008FB103345EA03445E
:1003B80000FB0AFAA24508D91EEB040400F1FF333A
:1003C8006BD2A24569D90238744440EA0940A0FBBF
:1003D8000289A4EB0A044C45C2464B4654D351D07B
:1003E800002E69D0B1EB0A0564EB030404FA0CFC97
:1003F800FD40FC404CEA0505C6E90054002747E7E4
:10040800C2F1200320FA03F7954001FA02F021FA1D
:1004180003F34FEA154E3843010CB3FBFEF71FFAFE
:1004280085F80EFB173341EA034107FB08F38B42BB
:1004380004FA02F407D9691807F1FF3C2FD28B425E
:100448002DD9023F2944CB1A81B2B3FBFEF00EFB33
:10045800103341EA034100FB08F38B4207D96918BE
:1004680000F1FF3C17D28B4215D902382944C91A2A
:1004780040EA07473BE73746304609E70746E7E6DD
:100488001846FBE64145ABD2B8EB020A69EB0E020F
:1004980001381346A4E76046E9E7184695E767463A
:1004A800D1E781467CE702382C4447E7ACF1020CDF
:1004B8002B442FE7384608E73746E9E6704700BF80
:1004C800EC46A0E8F05F4FF000007047B0E8F05F3E
:1004D800E546080008BF0120704700BF034613F82F
:1004E800012B002AFBD1181A0138704710B50446B1
:1004F8000E4B18784FF47A73B3FBF0F30C4A10687C
:10050800B0FBF3F000F088F868B90F2C01D901208E
:100518000AE0002221464FF0FF3000F049F8034B73
:100528005C60002000E0012010BD00BF000000203A
:100538000800002008B50B4B1A6842F400721A60D4
:100548001A6842F480621A601A6842F480721A606B
:10055800032000F01BF80020FFF7C8FF01F08CF91A
:10056800002008BD003C0240034A1168034B1B7879
:100578000B441360704700BFA0000020000000205B
:10058800014B1868704700BFA0000020074AD368D5
:1005980023F4E0631B041B0C000200F4E060184322
:1005A80040F0BF6040F40030D060704700ED00E0DC
:1005B80030B4174BDB68C3F30223C3F10704042CE0
:1005C80028BF04241D1D062D18D9033B4FF0FF3505
:1005D80005FA04F421EA0401994005FA03F322EA32
:1005E8000303194300280BDB0901C9B200F160407D
:1005F80000F5614080F8001330BC70470023E5E740
:1006080000F00F000901C9B2024B1954F4E700BF0A
:1006180000ED00E014ED00E00138B0F1807F0AD26F
:10062800064B5860064AF02182F823100020986093
:1006380007221A6070470120704700BF10E000E0F1
:1006480000ED00E000230F2B00F2D780F0B482B059
:1006580039E0072200E00022B2403A430234674EF4
:1006680046F82420664A1468EA4302EA04064F68FA
:1006780017F4803F01D045EA0406614C266064689F
:1006880002EA04064F6817F4003F01D045EA040661
:100698005B4C6660A46802EA04064F6817F4801F82
:1006A80001D045EA0406564CA660E46822404E682C
:1006B80016F4001F01D045EA0402514CE2600133F0
:1006C8000F2B00F2978001229A400C6804EA020579
:1006D800AA42F4D14C68022C01D0122C10D1DE08A9
:1006E800083650F826C003F00704A7000F24BC40C2
:1006F8002CEA040C0C69BC4044EA0C0440F826407F
:1007080004685F000326BE40F64306EA040C4C6802
:1007180004F00304BC4044EA0C0404604C6804F18F
:10072800FF3CBCF1010F03D9112C01D0122C10D1C0
:10073800846806EA040CCC68BC4044EA0C04846073
:10074800446824EA02024C68C4F300149C40144331
:100758004460C26816408A68BA403243C2604A6838
:1007680012F0805FABD000220192264A546C44F408
:1007780080445464526C02F480420192019A9C08AD
:10078800A61C1E4A52F8267003F0030296000F2298
:10079800B24027EA02071C4A90423FF45CAF02F5D8
:1007A800806290421AD002F58062904218D002F519
:1007B8008062904216D002F58062904214D002F511
:1007C8008062904212D002F58062904210D002F509
:1007D800806290423FF43DAF08223DE701223BE7AB
:1007E800022239E7032237E7042235E7052233E7F7
:1007F800062231E702B0F0BC70477047003801406C
:10080800003C0140003802400000024003691942E0
:1008180001D1002070470120704712B90904816195
:100828007047816170470000002800F0BB8170B5F7
:1008380082B00446036813F0010F3BD0A74B9B68B6
:1008480003F00C03042B2CD0A44B9B6803F00C037F
:10085800082B21D06368B3F5803F4FD0B3F5A02FA4
:1008680052D09E4B1A6822F480321A601A6822F419
:1008780080221A606368002B50D0FFF781FE05467E
:10088800964B1B6813F4003F14D1FFF779FE401B09
:100898006428F5D903208AE1904B5B6813F4800F34
:1008A800D8D08E4B1B6813F4003F03D06368002B2D
:1008B80000F07A81236813F0020F55D0874B9B68AC
:1008C80013F00C0F3ED0854B9B6803F00C03082BEC
:1008D80033D0E368002B68D0814B01221A60FFF700
:1008E8004FFE05467D4B1B6813F0020F54D1FFF7EE
:1008F80047FE401B0228F5D9032058E1774A1368C0
:1009080043F480331360B5E7744B1A6842F48022CD
:100918001A601A6842F480321A60ABE7FFF730FEBB
:1009280005466E4B1B6813F4003FC3D0FFF728FE43
:10093800401B6428F5D9032039E1684B5B6813F440
:10094800800FC6D1654B1B6813F0020F04D0E36813
:10095800012B01D001202AE1604A136823F0F80333
:10096800216943EAC1031360236813F0080F40D0DC
:10097800636963B35B4B01221A60FFF701FE05460A
:10098800564B5B6F13F0020F33D1FFF7F9FD401B95
:100998000228F5D903200AE1504A136823F0F80326
:1009A800216943EAC1031360DEE74D4B00221A6058
:1009B800FFF7E6FD0546494B1B6813F0020FD3D03D
:1009C800FFF7DEFD401B0228F5D90320EFE0454B79
:1009D80000221A60FFF7D4FD0546404B5B6F13F009
:1009E800020F06D0FFF7CCFD401B0228F5D90320E3
:1009F800DDE0236813F0040F79D0384B1B6C13F03B
:100A0800805F33D100230193344B1A6C42F080523B
:100A18001A641B6C03F080530193019B0125324B30
:100A28001B6813F4807F23D0A368012B34D0052BD7
:100A380038D02A4B1A6F22F001021A671A6F22F077
:100A480004021A67A368002B36D0FFF799FD064603
:100A5800224B1B6F13F0020F48D1FFF791FD801B4B
:100A680041F288339842F3D90320A0E00025D6E765
:100A78001D4A136843F480731360FFF781FD06462F
:100A8800194B1B6813F4807FCED1FFF779FD801BCB
:100A98000228F5D903208AE0104A136F43F00103B6
:100AA8001367CFE70D4B1A6F42F004021A671A6FEB
:100AB80042F001021A67C5E7FFF762FD0646074BD9
:100AC8001B6F13F0020F11D0FFF75AFD801B41F284
:100AD80088339842F3D9032069E000BF0038024008
:100AE80000004742800E474200700040E5B9A36904
:100AF800002B5BD0304A926802F00C02082A58D0CA
:100B0800022B17D02D4B00221A60FFF739FD04463F
:100B1800294B1B6813F0007F42D0FFF731FD001B03
:100B28000228F5D9032042E0234A136C23F08053AE
:100B38001364DCE7214B00221A60FFF721FD05460C
:100B48001D4B1B6813F0007F06D0FFF719FD401BF3
:100B58000228F5D903202AE0E369226A1343626A6E
:100B680043EA8213A26A5208013A43EA0243E26A5C
:100B780043EA0263104A5360104B01221A60FFF7E0
:100B8800FFFC04460C4B1B6813F0007F06D1FFF7EF
:100B9800F7FC001B0228F5D9032008E0002006E036
:100BA800002004E001207047012000E0002002B08E
:100BB80070BD0120FBE700BF0038024060004742DB
:100BC800264B9B6803F00C03042B44D0082B01D060
:100BD800234870472DE9F04B204B5A6802F03F023A
:100BE8005B6813F4800F13D01C4B5968C1F388114C
:100BF80000231C48A1FB0001FFF7E2FA174B5B68D2
:100C0800C3F3014301335B00B0FBF3F0BDE8F08BA5
:100C1800124B5B68C3F388131E4600275C0100254E
:100C2800E41A65EB0705A90141EA9461A001001BDC
:100C380061EB0501CB0043EA5073C400A01943EBF4
:100C480007018B0243EA9053840220461946002389
:100C5800FFF7B6FAD2E70348704700BF00380240F2
:100C68000024F40040787D01002800F09D8070B5D4
:100C780004464F4B1B6803F00F038B4209D2CBB2DB
:100C88004B4A1370136803F00F038B4201D0012005
:100C980070BD236813F0020F17D013F0040F04D0AF
:100CA800444A936843F4E0539360236813F0080FB1
:100CB80004D0404A936843F4604393603D4A936884
:100CC80023F0F003A068034393600D46236813F0F4
:100CD800010F32D06368012B21D09A1E012A25D931
:100CE800344A126812F0020F60D032498A6822F042
:100CF800030213438B60FFF743FC06462D4B9B68AA
:100D080003F00C036268B3EB820F16D0FFF738FCD0
:100D1800801B41F288339842F0D90320B8E7254A6E
:100D2800126812F4003FE0D10120B1E7214A1268AD
:100D380012F0007FD9D10120AAE71D4B1B6803F0F0
:100D48000F03AB4209D9EAB2194B1A701B6803F0BA
:100D58000F03AB4201D001209AE7236813F0040F78
:100D680006D0144A936823F4E053E1680B43936078
:100D7800236813F0080F07D00E4A936823F46043E2
:100D8800216943EAC1039360FFF71AFF094B9B6887
:100D9800C3F30313084AD35CD840084B18600020FB
:100DA800FFF7A4FB002073E70120704701206FE7DD
:100DB800003C024000380240C82900080800002012
:100DC800014B1868704700BF0800002008B5FFF7FE
:100DD800F7FF044B9B68C3F38223034AD35CD840D4
:100DE80008BD00BF00380240D829000808B5FFF741
:100DF800E7FF044B9B68C3F34233034AD35CD840F4
:100E080008BD00BF00380240D829000810B4036AA2
:100E1800046A24F001040462846924F0F00444EABA
:100E2800021223F00A030B43826103625DF8044B4C
:100E3800704710B4036A23F0100303628469036ADD
:100E480024F4704444EA023223F0A00343EA011375
:100E5800826103625DF8044B7047836823F0700376
:100E6800194341F007018160704700000368304A68
:100E7800904212D0B0F1804F0FD0A2F57C42904240
:100E88000BD002F58062904207D002F58062904252
:100E980003D002F57842904203D123F070034A68E8
:100EA8001343234A90422AD0B0F1804F27D0A2F5AD
:100EB8007C42904223D002F5806290421FD002F516
:100EC800806290421BD002F57842904217D002F51A
:100ED8007052904213D002F5806290420FD002F512
:100EE800806290420BD0A2F59832904207D002F56A
:100EF8008062904203D002F58062904203D123F4CD
:100F08004073CA68134323F080034A69134303609C
:100F18008B68C3620B688362054B984203D003F564
:100F28008063984201D10B690363012343617047D1
:100F380000000140A8B110B5044690F83D305BB1FF
:100F4800022384F83D30211D2068FFF78FFF01231D
:100F580084F83D30002010BD80F83C3000F0A8FC3B
:100F6800EEE70120704710B4846824F47F4442EA15
:100F780003230B43234383605DF8044B704790F8C9
:100F88003C30012B66D010B50446012380F83C3074
:100F9800022380F83D300268936823F47F4323F0EE
:100FA800770393600B68402B4AD013D9602B3DD050
:100FB8001ED9702B28D0B3F5005F30D1CB684A68B2
:100FC80089680068FFF7CFFF2268936843F480437D
:100FD800936024E0102B06D004D9202B03D0302BAB
:100FE80001D01CE0DBB919462068FFF736FF16E090
:100FF800502B14D1CA6849680068FFF707FF5021D1
:101008002068FFF72AFF0AE0CB684A688968006809
:10101800FFF7A9FF2268936843F0770393600123E1
:1010280084F83D30002084F83C0010BDCA68496847
:101038000068FFF7FEFE60212068FFF70EFFEEE76D
:10104800CA6849680068FFF7E1FE40212068FFF799
:1010580004FFE4E70220704790F83C30012B1CD0D5
:1010680070B4012680F83C60022380F83D300268A5
:101078005568936825F070050C682C4323F08005AB
:101088004B682B4354600268936080F83D600023EE
:1010980080F83C30184670BC70470220704700004A
:1010A8002DE9F84304460268136923F44053C168E4
:1010B8000B43136183680269134342691343C2698E
:1010C8001A430168CB6823F4164323F00C03134337
:1010D800CB600268536923F4407381690B43536101
:1010E800C369B3F5004F60D00368B84A934200F073
:1010F800148102F58062934200F00F81FFF766FECB
:1011080000EB800000EB80006568AD00B0FBF5F5F2
:10111800AF4FA7FB05356D092E01FFF757FE00EB12
:10112800800000EB80006568AD00B0FBF5F9FFF7C3
:101138004DFE00EB800000EB80006568AD00B0FB61
:10114800F5F5A7FB05356D094FF0640808FB159503
:101158002D013235A7FB05356D0905F0F00535443D
:10116800FFF734FE00EB800000EB80006668B600F5
:10117800B0FBF6F6FFF72AFE00EB800000EB8000DC
:1011880063689B00B0FBF3F0A7FB0030400908FB45
:1011980010684FEA081808F13208A7FB0837C7F3A8
:1011A800431723682F449F600DE10368874A9342E1
:1011B8005BD002F58062934257D0FFF707FE00EB41
:1011C800800000EB800065686D00B0FBF5F5804F8E
:1011D800A7FB05356D092E01FFF7F8FD00EB800030
:1011E80000EB800065686D00B0FBF5F9FFF7EEFDD8
:1011F80000EB800000EB800065686D00B0FBF5F542
:10120800A7FB05356D094FF0640808FB1595ED003F
:101218003235A7FB05356D096D0005F4F8753544C1
:10122800FFF7D4FD00EB800000EB800066687600D5
:10123800B0FBF6F6FFF7CAFD00EB800000EB80007C
:1012480063685B00B0FBF3F3A7FB03235B0908FBB0
:1012580013684FEAC80808F13208A7FB0837C7F334
:10126800421723682F449F60ADE0FFF7BFFD00EBF6
:10127800800000EB800065686D00B0FBF5F5544F09
:10128800A7FB05356D092E01FFF7B0FD00EB8000C7
:1012980000EB800065686D00B0FBF5F9FFF7A6FD6F
:1012A80000EB800000EB800065686D00B0FBF5F591
:1012B800A7FB05356D094FF0640808FB1595ED008F
:1012C8003235A7FB05356D096D0005F4F875354411
:1012D800FFF78CFD00EB800000EB8000666876006D
:1012E800B0FBF6F6FFF782FD00EB800000EB800014
:1012F80063685B00B0FBF3F3A7FB03235B0908FB00
:1013080013684FEAC80808F13208A7FB0837C7F383
:10131800421723682F449F6055E0FFF767FD00EBF5
:10132800800000EB80006568AD00B0FBF5F5284F44
:10133800A7FB05356D092E01FFF758FD00EB80006E
:1013480000EB80006568AD00B0FBF5F9FFF74EFDD6
:1013580000EB800000EB80006568AD00B0FBF5F5A0
:10136800A7FB05356D094FF0640808FB15952D019D
:101378003235A7FB05356D0905F0F0053544FFF753
:1013880035FD00EB800000EB80006668B600B0FB1E
:10139800F6F6FFF72BFD00EB800000EB800063689A
:1013A8009B00B0FBF3F0A7FB0030400908FB106876
:1013B8004FEA081808F13208A7FB0837C7F34317A4
:1013C80023682F449F60BDE8F88300BF00100140E8
:1013D8001F85EB512DE9F04105460F461646984604
:1013E800069C2B681B6837EA03030CBF0123002304
:1013F800B3421DD1B4F1FF3FF3D02CB1FFF7C0F8D1
:10140800A0EB0800A042ECD92A68D36823F4D07373
:10141800D3602A68536923F001035361202385F8B8
:10142800393085F83A30002385F83830032000E059
:101438000020BDE8F08158B310B5044690F8393063
:101448000BB3242384F839302268D36823F400537B
:10145800D3602046FFF724FE2268136923F49043E3
:1014680013612268536923F02A0353612268D36801
:1014780043F40053D3600020E063202384F839301C
:1014880084F83A3010BD80F8383000F029FAD8E7EF
:10149800012070472DE9F04182B01E4690F839309E
:1014A800DBB2202B55D104460D469046002955D075
:1014B800002A55D090F83830012B53D0012380F8FA
:1014C80038300023C363212380F83930FFF758F8F8
:1014D8000746A4F82480A4F8268010E000963B462E
:1014E800002280212046FFF775FF00283CD12B8879
:1014F8002268C3F3080353602369C3B90235E38C38
:101508009BB2B3B1E38C013B9BB2E384A368B3F510
:10151800805FE3D000963B46002280212046FFF7FB
:1015280059FF18BB2A7823685A600135E7E7013567
:10153800E5E700963B46002240212046FFF74AFF98
:101548000346A8B9202284F83920002284F83820DC
:1015580000E00223184602B0BDE8F0810123F9E754
:101568000123F7E70223F5E70323F3E70323F1E772
:101578000323EFE730B589B000240394049405945D
:10158800069407940094194B1A6B42F008021A63E8
:101598001A6B02F008020092009A01941A6B42F04A
:1015A80001021A631A6B02F001020192019A029475
:1015B8001A6B42F002021A631B6B03F002030293D8
:1015C800029B0B4D22464FF470412846FFF725F940
:1015D8004FF470430393012304930594069403A9DD
:1015E8002846FFF72FF809B030BD00BF0038024089
:1015F800000C024030B587B0002402940394049490
:101608000594009401940D4D0D4B2B606C60AC60FB
:10161800EC602C61AC612846FFF78CFC4FF48053DA
:10162800029302A92846FFF7AAFC00940194694690
:101638002846FFF711FD07B030BD00BFA400002009
:101648000008004008B50848084B03604FF4E13330
:10165800436000238360C36003610C22426183619D
:10166800C361FFF7E8FE08BDE40000200010014058
:1016780010B50446FEF732FF4FF47A7382B2214662
:101688000148FFF707FF10BDE400002030B595B012
:101698003022002108A800F0CDFC00240394049413
:1016A80005940694079401941B4B1A6C42F08052DF
:1016B8001A641B6C03F080530193019B0294174B2F
:1016C8001A6842F480421A601B6803F4804302934C
:1016D800029B0225089501230B9310230C930E956A
:1016E8000F9408231093A82311931295042313939E
:1016F80008A8FFF799F80F230393049505944FF46E
:10170800A05306934FF480530793052103A8FFF7CE
:10171800ABFA15B030BD00BF003802400070004081
:1017280008B5FEF707FFFFF7B1FFFFF723FFFFF745
:1017380061FFFFF787FF1048FFF79AFF0F4800F097
:10174800F1FC0F4800F0D8FB73220E490E4800F058
:10175800ADFB74220D490E4800F0A8FB75220D4917
:101768000D4800F0A3FB76220C490D4800F09EFBC3
:1017780000F0D2FB08BD00BF402C0008482C000830
:10178800582C0008702C0008491A0008982C0008EA
:101798007F1A0008CC2C0008B51A0008F02C0008A5
:1017A800251B00080023934223DA10B40CE000BF85
:1017B8004FF0604109680029F9D04FF06041087086
:1017C80001332146934210DA4C1C08784FF06041EF
:1017D800D1F8801E11F0010FF2D04FF06041D1F81E
:1017E800001E11F0010FEBD0E2E710465DF8044B44
:1017F8007047104670470844C0B2704700FB01F0BC
:101808007047000010B5012819D01A4C00224FF477
:1018180080512046FFF701F800224FF4005120467E
:10182800FEF7FBFF00224FF480412046FEF7F5FF4C
:1018380000224FF400412046FEF7EFFF10BD0D4C8B
:1018480001224FF480512046FEF7E7FF01224FF4B2
:1018580000512046FEF7E1FF01224FF48041204667
:10186800FEF7DBFF01224FF400412046FEF7D5FFCB
:10187800E4E700BF000C024082B0002100910B4B4E
:101888005A6C42F480425A645A6C02F480420092C4
:10189800009A01911A6C42F080521A641B6C03F092
:1018A80080530193019B02B0704700BF003802408B
:1018B8000268094B9A4200D0704782B00023019316
:1018C800064B1A6C42F004021A641B6C03F0040302
:1018D8000193019B02B070470008004000380240A5
:1018E80000B589B0002303930493059306930793E7
:1018F800026803F1804303F588339A4202D009B0A5
:101908005DF804FB0021019103F594335A6C42F011
:1019180010025A645A6C02F010020192019A029164
:101928001A6B42F002021A631B6B03F00203029364
:10193800029BC023039302230493012305930323EB
:1019480006930723079303A90148FEF77BFED6E712
:10195800000402407047FEE7FEE7FEE7FEE7704737
:101968007047704708B5FEF7FFFD08BD70B50D4616
:101978001646002404E0AFF30080287001340135D6
:10198800B442F8DB304670BD08B503460B4A12680E
:1019980042B10A4A106803446A46934206D8074A85
:1019A800136008BD054A06491160F2E700F018FB0C
:1019B8000C2303604FF0FF30F3E700BF8C000020DA
:1019C800B00100204FF0FF3070474FF400534B60D8
:1019D8000020704701207047002070470F49D1F858
:1019E800883043F47003C1F888300D4B1A6842F010
:1019F80001021A60002098601A6822F0847222F4AA
:101A080080321A60074A5A601A6822F480221A60E3
:101A1800D8604FF000638B60704700BF00ED00E0B6
:101A2800003802401030002408B5034B01221A7018
:101A3800024800F077FB08BD94000020182D00082C
:101A480010B582B005210220FFF7D5FE14240094BA
:101A58000E2300220146082000F0B0F908210520D5
:101A6800FFF7C9FE00940F23002201460D2000F065
:101A7800A5F902B010BD10B582B002210846FFF7E3
:101A8800BDFE14240094234600220146042000F0E1
:101A980095F908210846FFF7B1FE009415230022A6
:101AA8000146402000F08AF902B010BD08B50120B7
:101AB800FFF7A8FE4FF480511648FEF7A7FE01284D
:101AC80019D14FF400511348FEF7A0FE012817D191
:101AD8004FF480410F48FEF799FE012815D14FF4C5
:101AE80000410C48FEF792FE012803D01E210A4847
:101AF80000F098F908BD1B21074800F093F9E0E7CA
:101B08001C21054800F08EF9E2E71D21024800F08B
:101B180089F9E4E7000C0240242D000808B50020EC
:101B2800FFF770FE4FF480511548FEF76FFE90B92D
:101B38004FF400511248FEF769FE88B94FF480410E
:101B48000F48FEF763FE80B94FF400410C48FEF7DA
:101B58005DFE78B908BD24210A4800F063F9E7E77B
:101B68002521084800F05EF9E8E72621054800F03D
:101B780059F9E9E72721034800F054F9EAE700BFDB
:101B8800000C0240242D000808B5034B00221A70EF
:101B9800024800F0C7FA08BD94000020402D000854
:101BA80070B50646012402E004EB84035C00B6FB32
:101BB800F4F3092BF8D8B6FBF4F2084DA5FB023074
:101BC800C00800EB80004300D01A3030C0B200F0EB
:101BD80039FAA5FB0434E408EDD170BDCDCCCCCCEA
:101BE80010B5002802DBFFF7DBFF10BD04462D20EF
:101BF80000F028FA6042F6E738B505460C46082991
:101C080004D9082402E0373000F01CFA64B1013C22
:101C1800E4B2A00025FA00F000F00F000928F2DC79
:101C2800303000F00FFAF1E738BD10B504460078FF
:101C3800A0F12003DBB25E2B0ED90D280FD00A28A5
:101C480014D05C2000F0FEF9782000F0FBF90221A6
:101C58002078FFF7D1FF10BD00F0F4F9FBE75C2016
:101C680000F0F0F9722000F0EDF9F4E75C2000F0E4
:101C7800E9F96E2000F0E6F9EDE710B5044620B961
:101C880006E02046FFF7D1FF01342378002BF8D176
:101C980010BD000010B50C46FFF7EFFF3A2000F02A
:101CA800D1F92046FFF79CFF3A2000F0CBF9044B0E
:101CB8005868FFF7E2FF3A2000F0C4F910BD00BFF2
:101CC8002401002008B50146054B1868FFF7E2FF1C
:101CD8000448FFF7D2FF3A2000F0B4F908BD00BF6E
:101CE80024010020E0290008E8B138B504460E4870
:101CF800FFF7C3FF0D4B9B688BB10D48FFF7BDFF86
:101D08000A4DA868FFF7B9FFEB682BB10948FFF740
:101D1800B4FFE868FFF7B1FF0348FFF7AEFF2046BE
:101D2800FFF7ABFF38BD7047E82900082401002001
:101D3800EC290008F829000838B5054611F0100FFD
:101D480010D10C4611F0200F0FD1302000F07AF995
:101D5800782000F077F904F00F0149002846FFF7D2
:101D68004BFF38BDFFF73CFFFBE7FFF719FFF8E72C
:101D780008B5104B5B6A3BB90E4B1B6A83B10D4A21
:101D880093690133936103E00A4AD3690133D3614C
:101D9800084B00221A625A620A2000F053F908BD63
:101DA800044B19691868FFF775FF0348FFF765FFCB
:101DB800EEE700BF240100205C2A00082DE9F0416D
:101DC8009DF81860154C246A24B9144C646A0CB93F
:101DD800884201D1BDE8F08117460C4605461846F1
:101DE800FFF770FFDFF8388008F16000FFF745FF64
:101DF80031462846FFF7A0FF08F17400FFF73DFFC2
:101E080031462046FFF798FF3846FFF76DFF034835
:101E1800012101622830FEF759FB00BF2401002090
:101E2800E029000838B51C4B1B6A13B91A4B5B6ACA
:101E380003B138BD0446184B1868FFF72BFF174845
:101E4800FFF71BFFECB13A2000F0FCF8124B9B683F
:101E58008BB11348FFF711FF0F4DA868FFF70DFF6F
:101E6800EB682BB10F48FFF708FFE868FFF705FF9D
:101E78000D48FFF702FF2378202B08D12046FFF7F3
:101E8800FCFE0548012101622830FEF71FFB2020D7
:101E980000F0D8F8F2E700BF24010020E02900088C
:101EA800EC290008F8290008E829000800B583B0E3
:101EB80001900F4841600261436901334361002387
:101EC8008360C3602830FEF7FBFA40B10948FEF78B
:101ED800F7FA48B1FFF74CFF03B05DF804FBFFF7D2
:101EE800A3FD019B9847F1E7FFF74EFEF2E700BF1D
:101EF800240100204C010020064B186000225A6083
:101F08001A615A619A61DA611A625A629A60DA60F1
:101F1800704700BF2401002038B50A2000F092F86D
:101F2800184D05F5B870FFF7A8FE0A2000F08AF8EA
:101F3800154C6069FFF754FE05F5C470FFF79DFE68
:101F4800A069FFF74DFE05F5C870FFF796FEE0693A
:101F5800FFF746FE05F5CE70FFF78FFE0A2000F06A
:101F680071F8A36943B10748FFF787FE0A2000F01C
:101F780069F8054B986938BD05F5D470FFF77DFE03
:101F8800F4E700BFE029000824010020DFF834D07E
:101F9800002103E00C4B5B58435004310B480C4BB9
:101FA80042189A42F6D30B4A02E0002342F8043B57
:101FB800094B9A42F9D3FFF711FD00F017F8FFF724
:101FC800AFFB704700000220C42D0008000000206D
:101FD8007000002070000020AC010020FEE7000027
:101FE800014B1868704700BF0C00002070B50D4EFB
:101FF8000D4CA41BA4100025A54209D10B4E0C4C76
:1020080000F0D2FCA41BA4100025A54205D170BD88
:1020180056F8253098470135EEE756F825309847A9
:102028000135F2E7BC2D0008BC2D0008BC2D0008C6
:10203800C02D000802440346934200D1704703F8BC
:10204800011BF9E738B5084B1C68054624B1A3699C
:1020580013B9204600F01EFAA26829462046BDE8BA
:10206800384000F0ADBB00BF0C00002070B50E4634
:10207800054618B183690BB900F00CFAAB69AC6876
:1020880013B9284600F006FA234B9C4217D16C6816
:10209800A3891B071DD52369DBB1013EA36816F888
:1020A800011F013BA360E9B9002B2EDA22460A2161
:1020B800284600F03FF8013011D00A2011E0174BF4
:1020C8009C4201D1AC68E3E7154B9C4208BFEC6821
:1020D800DEE72146284600F07FF80028DDD04FF0E3
:1020E800FF3070BD002B04DAA2699A4206DC0A2987
:1020F80004D023685A1C22601970CFE7224628466C
:1021080000F018F80130C9D1E9E723680A205A1C01
:1021180022601870E5E700BF742D0008942D0008B0
:10212800542D0008024B01461868FFF79FBF00BFF7
:102138000C000020F8B50E461446054618B1836910
:102148000BB900F0A7F9214B9C422AD16C68A3690E
:10215800A360A3891A072ED5236963B3236920686E
:10216800C01A6369F6B28342374604DC2146284622
:1021780000F026F928BBA368013BA36023685A1C1A
:1021880022601E7063690130834204D0A389DB0793
:1021980019D50A2E17D12146284600F011F990B119
:1021A8000FE00B4B9C4201D1AC68D0E7094B9C4235
:1021B80008BFEC68CBE72146284600F00DF8002858
:1021C800CCD04FF0FF373846F8BD00BF742D00085B
:1021D800942D0008542D0008324B70B51D68064632
:1021E8000C4625B1AB6913B9284600F053F92E4BBC
:1021F8009C420FD16C68B4F90C309AB215072CD4F4
:10220800D00611D40922326043F04003A3814FF075
:10221800FF303EE0254B9C4201D1AC68EBE7244BF4
:102228009C4208BFEC68E6E7510712D5616B41B1E3
:1022380004F14403994202D0304600F019FA002311
:102248006363A38923F02403A381002363602369C4
:102258002360A38943F00803A38123694BB9A389A9
:1022680003F42073B3F5007F03D02146304600F015
:10227800BFF9A28912F001030CD00023A36063699F
:102288005B42A361236953B9B4F90C3013F08000A1
:10229800BAD170BD920758BF6369A360F2E7002006
:1022A800F7E700BF0C000020742D0008942D0008EB
:1022B800542D00088A892DE9F041054610070C467F
:1022C80058D44B68002B05DC0B6C002B02DC00207B
:1022D800BDE8F081E66A002EF9D0002312F480529E
:1022E8002F68216A2B6032D0606DA3895A0705D503
:1022F8006368C01A636B0BB1236CC01A00230246D3
:10230800E66A216A2846B047431CA38906D1296892
:102318001D2948D8294ACA40D60744D500226260F8
:10232800D9042269226004D5421C01D12B6803B963
:102338006065616B2F600029C9D004F1440399429C
:1023480002D0284600F094F900206063C0E701231A
:102358002846B047411CC8D12B68002BC5D01D2B7F
:1023680001D0162B01D12F60B1E7A38943F04003B8
:10237800A381ADE70F69002FA9D093070E6808BFA6
:102388004B690F6018BF0023A6EB07088B60B8F1F4
:10239800000F9CDD43463A46216AA66A2846B047A4
:1023A800002806DCA38943F04003A3814FF0FF30E7
:1023B8008EE70744A8EB0008E9E700BF01004020CA
:1023C80038B50B6905460C46DBB118B183690BB902
:1023D80000F060F80C4B9C4209D16C68B4F90C30E1
:1023E8007BB121462846BDE83840FFF763BF074B5D
:1023F8009C4201D1AC68F1E7054B9C4208BFEC68F0
:10240800ECE7002038BD00BF742D0008942D0008AB
:10241800542D0008002310B50446C0E9003383603A
:1024280081814366C281C0E9043383611946082269
:102438005C30FFF7FFFD054B6362054BA362054B5C
:10244800E362054B2462236310BD00BF55280008D2
:1024580077280008AF280008D3280008014900F0B1
:1024680085B800BFC923000870B54A1E68255543C2
:102478000E4605F1740100F049F9044640B1002107
:10248800C0E900160C30A06005F16802FFF7D2FD24
:10249800204670BD836910B5044633BBC0E91233CA
:1024A8000365124B124A1B688262984204BF0123DB
:1024B800836100F01FF86060204600F01BF8A06000
:1024C800204600F017F80022E06004216068FFF75A
:1024D800A1FF01220921A068FFF79CFF0222122117
:1024E800E068FFF797FF0123A36110BD502D000896
:1024F80065240008F8B51B4B1E68B369074613B975
:102508003046FFF7C7FF4836D6E90134013B03D50B
:10251800336833B13668F7E7B4F90C506DB16834F5
:10252800F4E704213846FFF79FFF30600028F1D117
:102538000C233B6004462046F8BD0B4B6566C4E996
:102548000055A560C4E90335C4E9055508222946A4
:1025580004F15C00FFF76EFDC4E90D55C4E912559E
:10256800E9E700BF502D00080100FFFF2DE9F843FF
:102578008046894600F14804002614B93046BDE873
:10258800F883D4E90175013F01D52468F5E7AB89E3
:10259800012B07D9B5F90E30013303D0294640463F
:1025A800C84706436835EEE770B50E46B1F90E1018
:1025B800002996B014461D4607DA00232B60B3891C
:1025C8001A0610D44FF480630EE06A4600F0A4F9AE
:1025D8000028F2DB019A02F47042A2F500535A4235
:1025E8005A412A60EEE740230020236016B070BDF0
:1025F8008B8973B59D0706460C4607D504F147033A
:10260800236023610123636102B070BD01AB6A4698
:10261800FFF7CAFF00990546304600F077F848B939
:10262800B4F90C309A05EFD423F0030343F0020306
:10263800A381E3E70D4BB362A389206043F08003D5
:10264800A381009B6361019B20615BB1B4F90E100B
:10265800304600F073F928B1A38923F0030343F04F
:102668000103A381A3891D43A581CDE76524000843
:1026780038B50546002945D051F8043C0C1F002BFD
:10268800B8BFE41800F07CF91F4A1368104633B944
:10269800636014602846BDE8384000F072B9A34270
:1026A8000CD921686218934204BF1A685B6863609A
:1026B80004BF521822600460ECE713465A680AB156
:1026C800A242FAD919685818A0420BD120680144CF
:1026D800581882421960DDD1106852685A60014466
:1026E8001960D7E702D90C232B60D3E7206821189B
:1026F8008A4204BF11685268626004BF09182160E9
:102708005C60C7E738BD00BF9800002070B5CD1CDD
:1027180025F0030508350C2D38BF0C25002D06467D
:1027280001DBA94203D90C233360002070BD00F0FF
:1027380027F9214A1468214691B9204C23681BB90E
:10274800304600F073F820602946304600F06EF8F5
:10275800431C24D10C233360304600F012F9E4E71F
:102768000B685B1B18D40B2B0FD90B60CD50CC1802
:10277800304600F006F904F10B00231D20F0070095
:10278800C31AD3D05A42E250D0E78C424B6816BFE6
:10279800636013600C46EBE70C464968CCE7C41C41
:1027A80024F00304A04205D0211A304600F03EF878
:1027B8000130CFD02560DBE7980000209C00002086
:1027C80070B50D461446064618B183690BB9FFF774
:1027D80061FE134B9C4212D17468A368013B002B25
:1027E800A36016DAA269934202DBEBB20A2B10D17E
:1027F800224629463046BDE87040FFF79BBC094B8E
:102808009C4201D1B468E8E7074B9C4208BFF468D2
:10281800E3E723685A1C22601D70E8B270BD00BF50
:10282800742D0008942D0008542D000838B5064C66
:102838000023054608462360FFF7A6F8431C02D18B
:10284800236803B12B6038BDA801002010B50C46E1
:10285800B1F90E1000F096F80028ABBF636DA3899C
:102868001B1823F48053ACBF6365A38110BD2DE909
:10287800F0411F468B89DB0505460C46164605D5F3
:1028880002230022B1F90E1000F068F8A389B4F908
:102898000E1023F48053A38132463B462846BDE8F8
:1028A800F04100F017B810B50C46B1F90E1000F061
:1028B80055F8431CA38915BF606523F4805343F47E
:1028C8008053A38118BFA38110BDB1F90E1000F089
:1028D80013B8000038B5074C0546084611460022D3
:1028E80022601A46FEF75EFF431C02D1236803B13B
:1028F8002B6038BDA801002038B5064C00230546DA
:1029080008462360FFF75EF8431C02D1236803B131
:102918002B6038BDA801002038B5074C00230546B8
:10292800084611462360FFF750F8431C02D123687C
:1029380003B12B6038BD00BFA801002038B5064C94
:102948000023054608462360FFF744F8431C02D1DC
:10295800236803B12B6038BDA801002038B5074CA7
:10296800054608461146002222601A46FFF734F849
:10297800431C02D1236803B12B6038BDA801002095
:102988007047704738B5074C05460846114600227F
:1029980022601A46FEF7EAFF431C02D1236803B1FE
:1029A8002B6038BDA8010020F8B500BFF8BC08BCF2
:1029B8009E467047F8B500BFF8BC08BC9E467047F5
:1029C80000000000000000000102030406070809D7
:1029D80000000000010203044641494C00000000C9
:1029E8002E20000046756E6374696F6E200000002B
:1029F80020417267756D656E7420000020457870FF
:102A0800656374656420706F696E74657220746F95
:102A1800206265204E554C4C000000002041637434
:102A280075616C20706F696E7465722077617320B0
:102A38004E554C4C00000000204578706563746565
:102A4800642000004E554C4C000000002057617374
:102A580020000000504153530000000020746F20F4
:102A680062652067726561746572207468616E20A2
:102A78000000000020746F206265206C657373206D
:102A88007468616E200000006F7220657175616C5A
:102A980020746F200000000020596F752041736B6F
:102AA8006564204D6520546F20436F6D70617265B9
:102AB800204E6F7468696E672C20576869636820B8
:102AC80057617320506F696E746C6573732E0000C4
:102AD80020456C656D656E7420000000342C00087C
:102AE800202C00081C2C0008102C0008496E766168
:102AF8006C696420466C6F6174205472616974005B
:102B08004E6F7420000000002056616C75657320BC
:102B18004E6F742057697468696E2044656C7461DF
:102B280020000000204D656D6F7279204D69736D2E
:102B3800617463682E0000002042797465200000EB
:102B480049474E4F524500002D2D2D2D2D2D2D2D51
:102B58002D2D2D2D2D2D2D2D2D2D2D2D2D2D2D00CA
:102B68002054657374732000204661696C75726522
:102B7800732000002049676E6F72656420000000B2
:102B88004F4B0000556E6974792036342D62697494
:102B980020537570706F72742044697361626C653C
:102BA80064000000556E69747920446F75626C6525
:102BB80020507265636973696F6E2044697361623E
:102BC8006C656400556E69747920466C6F61746930
:102BD8006E6720506F696E742044697361626C651A
:102BE80064000000556E6974792053686F727468C8
:102BF800616E6420537570706F72742044697361DC
:102C0800626C65640000000044657465726D696EED
:102C1800617465004E614E004E6567617469766542
:102C280020496E66696E697479000000496E6669AC
:102C38006E69747900000000746573740000000008
:102C480074657374776F726B73206578616D20009B
:102C5800746573742F7465737446756E6374696FE5
:102C68006E732E630000000061646446756E7469BB
:102C78006F6E5F546573745F436865636B49665034
:102C8800726F706572526573706F6E7365000000C5
:102C98006D756C7469706C69636174696F6E467583
:102CA8006E6374696F6E5F546573745F43686563C0
:102CB8006B496650726F706572526573706F6E7390
:102CC800650000006770696F50696E5365745F54E2
:102CD8006573745F436865636B496650726F7065AE
:102CE8007250696E536574006770696F50696E53EE
:102CF80065745F546573745F436865636B496650B8
:102D0800726F70657250696E526573657400000069
:102D18000A73657455705374617274002045787035
:102D28006563746564205452554520576173204685
:102D3800414C5345000000000A7365745570546592
:102D48006172446F776E00001000002000000000E0
:102D5800000000000000000000000000000000006B
:102D6800000000000000000000000000000000005B
:102D7800000000000000000000000000000000004B
:102D8800000000000000000000000000000000003B
:102D9800000000000000000000000000000000002B
:0C2DA8000000000000000000000000001F
:082DB40044D4FF7F0100000080
:042DBC00AD0100085D
:042DC000890100087D
:102DC40001000000100000000024F40010000020A6
:102DD40000000000742D0008942D0008542D0008F4
:102DE40000000000000000000000000000000000DF
:102DF40000000000000000000000000000000000CF
:102E040000000000000000000000000000000000BE
:102E140000000000000000000000000000000000AE
:102E2400000000000000000000000000000000009E
:0400000508001F953B
:00000001FF
