:020000040800F2
:1000000000500020C9110008910300089303000864
:1000100095030008970300089903000800000000FA
:100020000000000000000000000000009B0300082A
:100030009D030008000000009F030008A1030008C2
:100040001112000811120008111200081112000804
:1000500011120008111200081112000811120008F4
:1000600011120008111200081112000811120008E4
:1000700011120008111200081112000811120008D4
:1000800011120008111200081112000811120008C4
:10009000111200081112000811120008A90300082B
:1000A00011120008111200081112000811120008A4
:1000B0001112000811120008111200081112000894
:1000C0001112000811120008111200081112000884
:1000D0001112000811120008111200081112000874
:1000E000111200081112000811120008000000008F
:1000F0000000000000000000000000000000000000
:0C01000000000000000000005FF808F1A3
:10010C0010B5054C237833B9044B13B10448AFF345
:10011C0000800123237010BD0C00002000000000A3
:10012C006C12000808B5034B1BB103490348AFF32D
:10013C00008008BD00000000100000206C120008B8
:10014C0072B6FEE700B591B02822002106A801F096
:10015C007FF80023019302930393049305930223E6
:10016C00069301220A9210220B920D934FF4601306
:10017C000F9306A800F0F2FA80B90F230193022125
:10018C000291002303934FF480620492059301A81B
:10019C0000F022FD20B911B05DF804FBFFF7D0FF91
:1001AC00FFF7CEFF08B500F08BFAFFF7CBFF00F09E
:1001BC000FF800F093F800F047F82021034800F006
:1001CC00FFFE642000F0A0FAF7E700BF0008014032
:1001DC0030B587B000240294039404940594174B13
:1001EC009A6942F004029A619B6903F0040301933B
:1001FC00019B134D22462021284600F0DBFE2023D4
:10020C0002930123039304940223059302A9284625
:10021C0000F0BEFD4FF4007302930A4B0393049459
:10022C0002A9284600F0B4FD22462146172000F012
:10023C00F1FE172000F026FF07B030BD0010024081
:10024C00000801400000211000B587B00023029384
:10025C000393049305930093019315484FF0804248
:10026C0002603F22426083606422C260036183614A
:10027C0000F024F990B94FF48053029302A90C4872
:10028C0000F054F968B900230093019369460848BB
:10029C0000F0BAF940B907B05DF804FBFFF750FF66
:1002AC00E9E7FFF74DFFEEE7FFF74AFFF3E700BF83
:1002BC00280000200368B3F1804F00D0704782B053
:1002CC0003F50433DA6942F00102DA61DB6903F009
:1002DC0001030193019B02B07047000008B50A4866
:1002EC000A4B03604FF4E133436000238360C36027
:1002FC0003610C2242618361C36100F02FFF00B9DE
:10030C0008BDFFF71DFFFBE7700000200044004014
:10031C0010B586B0002302930393049305930268EF
:10032C00164B9A4201D006B010BD03F5E633DA69DC
:10033C0042F40032DA61DA6902F400320092009A77
:10034C009A6942F004029A619B6903F004030193D9
:10035C00019B042302930223039303230593084C6C
:10036C0002A9204600F014FD0823029300230393F6
:10037C00049302A9204600F00BFDD4E70044004092
:10038C0000080140FEE7FEE7FEE7FEE7FEE77047E8
:10039C007047704708B500F0A5F908BD08B54FF4D3
:1003AC00007000F017FE08BD82B00E4B9A6942F047
:1003BC0001029A619A6902F001020092009ADA69CC
:1003CC0042F08052DA61DB6903F080530193019BA8
:1003DC00054A536823F0E06343F00073536002B0A6
:1003EC00704700BF001002400000014010B4036AC7
:1003FC00046A24F001040462846924F0F00C4CEAD1
:10040C00021223F00A030B438261036210BC704793
:10041C0010B4046A24F0100404628469036A24F49E
:10042C00704C4CEA023223F0A00343EA01138261C0
:10043C00036210BC7047836823F070030B4343F0D6
:10044C00070383607047000003681B4A90420AD080
:10045C00B0F1804F07D0A2F59432904203D002F550
:10046C008062904203D123F070034A681343124A0E
:10047C0090420AD0B0F1804F07D0A2F5943290424E
:10048C0003D002F58062904203D123F44073CA6812
:10049C00134323F080034A69134303608B68C362E0
:1004AC000B688362044B984202D00123436170476E
:1004BC000B690363F9E700BF002C014040B310B592
:1004CC00044690F83D30F3B1022384F83D302146C8
:1004DC0051F8040BFFF7B8FF012384F8463084F879
:1004EC003E3084F83F3084F8403084F8413084F852
:1004FC00423084F8433084F8443084F8453084F832
:10050C003D30002010BD80F83C30FFF7D3FEDBE718
:10051C000120704710B4846824F47F4C42EA032213
:10052C000A4342EA0C02826010BC704790F83C30DF
:10053C00012B66D010B50446012380F83C30022311
:10054C0080F83D300268936823F47F4323F07703EF
:10055C0093600B68602B40D022D8402B47D00BD92E
:10056C00502B0ED1CA6849680068FFF73FFF502135
:10057C002068FFF760FF04E0202B0CD008D9302B4B
:10058C0009D0012384F83D30002084F83C0010BDD4
:10059C000BB1102BF5D119462068FFF74CFFF0E793
:1005AC00702B0ED0B3F5005FEBD1CB684A6889682D
:1005BC000068FFF7AFFF2268936843F480439360B1
:1005CC00DFE7CB684A6889680068FFF7A3FF2268F9
:1005DC00936843F077039360D3E7CA68496800686F
:1005EC00FFF716FF60212068FFF725FFC9E7CA68EF
:1005FC0049680068FFF7FAFE40212068FFF71BFFEF
:10060C00BFE702207047000090F83C30012B2CD043
:10061C0010B4012380F83C30022380F83D3003688D
:10062C005A689C6822F0700C0A6842EA0C025A6004
:10063C0003680F4A93420AD0B3F1804F07D0A2F55A
:10064C009432934203D002F58062934204D124F099
:10065C0080044A6814439C60012380F83D300023D9
:10066C0080F83C30184610BC70470220704700BF21
:10067C00002C014010B504460E4B18784FF47A73D9
:10068C00B3FBF0F30C4A1068B0FBF3F000F008FD7C
:10069C0068B90F2C01D901200AE0002221464FF045
:1006AC00FF3000F0B7FC054B1C60002000E001207F
:1006BC0010BD00BF00000020080000200400002036
:1006CC0008B5074A136843F010031360032000F0C9
:1006DC008FFC0020FFF7CEFFFFF766FE002008BD61
:1006EC0000200240034A1168034B1B780B44136033
:1006FC00704700BFB400002000000020014B1868B8
:10070C00704700BFB400002038B50446FFF7F6FF71
:10071C000546B4F1FF3F02D0044B1B781C44FFF795
:10072C00EDFF401BA042FAD338BD00BF00000020F3
:10073C0082B0084B1B68084AA2FB03235B0A00FB30
:10074C0003F3019300BF019B5A1E0192002BF9D1B8
:10075C0002B0704708000020D34D6210002800F052
:10076C00F18170B582B00446036813F0010F2CD0F0
:10077C00994B5B6803F00C03042B1DD0964B5B6804
:10078C0003F00C03082B12D06368B3F5803F41D003
:10079C00002B55D103F1804303F504331A6822F47E
:1007AC0080321A601A6822F480221A6037E08A4B71
:1007BC005B6813F4803FE7D0874B1B6813F4003F52
:1007CC0003D06368002B00F0BF81236813F0020F85
:1007DC0075D0814B5B6813F00C0F5FD07E4B5B6860
:1007EC0003F00C03082B54D02369002B00F08A80F3
:1007FC007A4B01221A60FFF781FF0546764B1B6886
:10080C0013F0020F75D1FFF779FF401B0228F5D9C1
:10081C0003209EE1704A136843F4803313606368CD
:10082C0043B3FFF76BFF05466B4B1B6813F4003F9C
:10083C00CBD1FFF763FF401B6428F5D9032088E177
:10084C00B3F5A02F09D0644B1A6822F480321A60D9
:10085C001A6822F480221A60E1E703F18043A3F5C1
:10086C003C331A6842F480221A601A6842F48032CF
:10087C001A60D4E7FFF742FF0546574B1B6813F489
:10088C00003FA2D0FFF73AFF401B6428F5D90320A4
:10089C005FE1514B5B6813F4803FA5D14E4B1B6855
:1008AC0013F0020F03D02369012B40F04F814A4A09
:1008BC00136823F0F803616943EAC10313602368EA
:1008CC0013F0080F33D0A369002B5CD0434B0122EB
:1008DC00C3F88024FFF712FF05463F4B5B6A13F009
:1008EC00020F21D1FFF70AFF401B0228F5D9032084
:1008FC002FE1394A136823F0F803616943EAC10315
:10090C001360DCE7354B00221A60FFF7F7FE054653
:10091C00314B1B6813F0020FD1D0FFF7EFFE401BD9
:10092C000228F5D9032014E10120FFF701FF236809
:10093C0013F0040F00F09680274BDB6913F0805FF7
:10094C0034D1254BDA6942F08052DA61DB6903F06D
:10095C0080530193019B0125214B1B6813F4807F6D
:10096C0026D0E368012B3DD0002B53D103F18043FB
:10097C0003F504331A6A22F001021A621A6A22F091
:10098C0004021A6233E0154B0022C3F88024FFF7EF
:10099C00B5FE0546104B5B6A13F0020FC7D0FFF78C
:1009AC00ADFE401B0228F5D90320D2E00025D3E789
:1009BC000B4A136843F480731360FFF79FFE0646DF
:1009CC00074B1B6813F4807FCBD1FFF797FE801B7E
:1009DC006428F5D90320BCE000100240000042421C
:1009EC00007000405F4A136A43F001031362E3682E
:1009FC0033B3FFF783FE06465A4B1B6A13F0020F04
:100A0C002FD1FFF77BFE801B41F288339842F3D93C
:100A1C0003209EE0052B09D0524B1A6A22F00102EA
:100A2C001A621A6A22F004021A62E0E74D4B1A6A43
:100A3C0042F004021A621A6A42F001021A62D6E704
:100A4C00FFF75CFE0646474B1B6A13F0020F08D0FB
:100A5C00FFF754FE801B41F288339842F3D90320F0
:100A6C0077E0E5B9E369002B72D03E4A526802F098
:100A7C000C02082A56D0022B17D03B4B00221A66C8
:100A8C00FFF73CFE0446374B1B6813F0007F47D042
:100A9C00FFF734FE001B0228F5D9032059E0314A38
:100AAC00D36923F08053D361DCE72F4B00221A6605
:100ABC00FFF724FE05462B4B1B6813F0007F06D076
:100ACC00FFF71CFE401B0228F5D9032041E0236AE6
:100ADC00B3F5803F1AD023494B6823F47413226A70
:100AEC00606A024313434B601F4B01221A66FFF7E7
:100AFC0005FE04461B4B1B6813F0007F0ED1FFF75D
:100B0C00FDFD001B0228F5D9032022E0154A53688D
:100B1C0023F40033A1680B435360DCE7002018E09A
:100B2C00002016E0012B16D00E4B5B6803F48031CD
:100B3C00226A914211D103F47013626A93420ED16E
:100B4C00002006E001207047012002E0012000E0B7
:100B5C00002002B070BD0120FBE70120F9E7012065
:100B6C00F7E700BF001002400000424286B0164B6F
:100B7C000FCB0DF1180C0CE90F0040F20123ADF86E
:100B8C000430124B5B6803F00C02082A02D01048A8
:100B9C0006B07047C3F38342624412F8100C13F48E
:100BAC00803F0CD0094B5B68C3F34043634413F89C
:100BBC00143C074A02FB00F0B0FBF3F0E8E7054BEE
:100BCC0003FB00F0E4E700BF8412000800100240B1
:100BDC0000127A0000093D00002800F0A08070B5DA
:100BEC000D460446524B1B6803F007038B420BD295
:100BFC004F4A136823F007030B431360136803F089
:100C0C0007038B4240F08D80236813F0020F17D03E
:100C1C0013F0040F04D0474A536843F4E063536065
:100C2C00236813F0080F04D0424A536843F460530E
:100C3C005360404A536823F0F003A1680B435360A0
:100C4C00236813F0010F31D06368012B20D0022BE5
:100C5C0025D0384A126812F0020F64D035494A6820
:100C6C0022F0030213434B60FFF748FD0646314B5D
:100C7C005B6803F00C036268B3EB820F16D0FFF7CE
:100C8C003DFD801B41F288339842F0D9032045E0AA
:100C9C00284A126812F4003FE0D101203EE0254AB8
:100CAC00126812F0007FD9D1012037E0204B1B686D
:100CBC0003F00703AB420AD91D4A136823F007035C
:100CCC002B431360136803F00703AB422DD1236849
:100CDC0013F0040F06D0174A536823F4E063E1685D
:100CEC000B435360236813F0080F07D0114A536865
:100CFC0023F46053216943EAC1035360FFF736FFC5
:100D0C000C4B5B68C3F303130B4AD35CD8400B4BFF
:100D1C0018600B4B1868FFF7ADFC002070BD01206C
:100D2C0070470120FAE70120F8E70120F6E700BF41
:100D3C000020024000100240981200080800002019
:100D4C0004000020014B1868704700BF0800002009
:100D5C0008B5FFF7F7FF044B5B68C3F30223034AA4
:100D6C00D35CD84008BD00BF00100240A812000898
:100D7C0008B5FFF7E7FF044B5B68C3F3C223034AD4
:100D8C00D35CD84008BD00BF00100240A812000878
:100D9C0070B582B00024A446A6E0804DAA4210D0C3
:100DAC0007D97F4DAA420CD005F58035AA4208D050
:100DBC0013E0A5F58015AA4203D005F57025AA42CB
:100DCC0007D18A68002A58D0012A51D043610824DF
:100DDC0003E0A5F58015AA42F3D0BEF1FF0F4ED863
:100DEC000646BEF1FF0F4CD84FEA8C0233680F2534
:100DFC00954023EA050304FA02F2134333604B686F
:100E0C0013F0805F6ED0674B9A6942F001029A61D1
:100E1C009B6903F001030193019B4FEA9C02951C13
:100E2C00614B53F825600CF003039D000F23AB407E
:100E3C0026EA03065D4B984229D003F5806398425D
:100E4C0000F08E8003F58063984200F08B8003F5F0
:100E5C008063984219D004231AE0CC68BDE7CC68B3
:100E6C000434BAE7CC680834B7E7CC680C34B4E780
:100E7C0003610824B1E70024AFE70424ADE7061DA5
:100E8C00AFE7ACF108029200B0E7032300E00023C7
:100E9C00AB4033430232444D45F822304B6813F4D7
:100EAC00803F61D0424A136843EA0E0313604B68DB
:100EBC0013F4003F5ED03E4A536843EA0E0353607E
:100ECC004B6813F4801F5BD0394A936843EA0E03D6
:100EDC0093604B6813F4001F58D0354AD36843EA2B
:100EEC000E03D3600CF1010C0A6832FA0CF353D0E8
:100EFC00012303FA0CF302EA030E33EA0202F1D1E6
:100F0C004A68122A3FF649AF122A3FF666AF01A58E
:100F1C0055F822F0CF0D0008670E0008710E00087E
:100F2C00830E0008E70D0008E70D0008E70D000828
:100F3C00E70D0008E70D0008E70D0008E70D0008B5
:100F4C00E70D0008E70D0008E70D0008E70D0008A5
:100F5C00E70D0008E70D00086B0E0008770E00087F
:100F6C00012395E7022393E7114A136823EA0E0342
:100F7C0013609CE70E4A536823EA0E0353609FE705
:100F8C000B4A936823EA0E039360A2E7084AD368DE
:100F9C0023EA0E03D360A5E702B070BD0000221057
:100FAC000000311000100240000001400008014018
:100FBC00000401400AB101617047090401617047E6
:100FCC00C36801EA030221EA030141EA024101611B
:100FDC007047704708B5054B5B69034200D108BDEB
:100FEC00024B5861FFF7F5FFF9E700BF0004014021
:100FFC00074AD36823F4E0631B041B0C000200F4C3
:10100C00E060034343F0BF6343F40033D3607047A5
:10101C0000ED00E000B5194BDB68C3F30223C3F10C
:10102C00070CBCF1040F28BF4FF0040C03F1040EA5
:10103C00BEF1060F18D9033B4FF0FF3E0EFA0CFC25
:10104C0021EA0C0199400EFA03F322EA0303194337
:10105C0000280BDB0901C9B200F1604000F56140CA
:10106C0080F800135DF804FB0023E5E700F00F00A7
:10107C000901C9B2024B1954F4E700BF00ED00E0BE
:10108C0014ED00E0002807DB00F01F0240090123EB
:10109C009340024A42F82030704700BF00E100E064
:1010AC000138B0F1807F0BD24FF0E0235861054A34
:1010BC00F02182F823100020986107221A617047F2
:1010CC000120704700ED00E010B50446026813697A
:1010DC0023F44053C1680B431361836802691343C3
:1010EC0042691A430168CB6823F4B05323F00C0314
:1010FC001343CB600268536923F4407381690B433B
:10110C0053610268134B9A4220D0FFF721FE02462E
:10111C0002EB820202EB820263689B00B2FBF3F2E9
:10112C000D48A0FB02314909642303FB11231B0169
:10113C003233A0FB03235B0903F0F00202EB011234
:10114C0003F00F03216813448B6010BDFFF710FEF2
:10115C000246DDE7003801401F85EB5158B310B54E
:10116C00044690F83D300BB3242384F83D302268BC
:10117C00D36823F40053D3602046FFF7A5FF226801
:10118C00136923F4904313612268536923F02A03F3
:10119C0053612268D36843F40053D3600020206469
:1011AC00202384F83D3084F83E3010BD80F83C306C
:1011BC00FFF7AEF8D8E70120704770470C480D498F
:1011CC000D4A002302E0D458C4500433C4188C4296
:1011DC00F9D30A4A0A4C002301E013600432A242FC
:1011EC00FBD3FFF7EAFF00F00FF8FEF7DBFF7047C9
:1011FC00000000200C000020B81200080C00002099
:10120C00B8000020FEE7000070B500260C4D0D4C18
:10121C00641BA410A64209D100F022F800260A4D46
:10122C000A4C641BA410A64205D170BD55F8043BB2
:10123C0098470136EEE755F8043B98470136F2E73C
:10124C00B0120008B0120008B0120008B412000866
:10125C0003460244934200D1704703F8011BF9E79F
:10126C00F8B500BFF8BC08BC9E467047F8B500BF87
:08127C00F8BC08BC9E46704757
:1012840002030405060708090A0B0C0D0E0F1010C3
:101294000000000000000000000000000102030440
:0C12A40006070809000000000102030416
:0412B0003101000800
:0412B4000D01000820
:0C12B80001000000100000000024F40001
:04000005080011C915
:00000001FF
